:100000000C9431020C944E020C944E020C944E024D
:100010000C944E020C944E020C944E020C944E0220
:100020000C944E020C944E020C944E020C944E0210
:100030000C944E020C944E020C944E020C944E0200
:100040000C944E020C944E020C94D5020C944E0269
:100050000C944E020C9450020C944E020C944E02DE
:100060000C944E020C944E0200407A10F35A00A0F9
:10007000724E18090010A5D4E80000E87648170071
:1000800000E40B54020000CA9A3B000000E1F505B1
:10009000000080969800000040420F000000A086FB
:1000A00001000000102700000000E803000000002D
:1000B0006400000000000A000000000001000000D1
:1000C00000002C76D888DC674F0823DFC1DFAE59EB
:1000D000E1B1B796E5E3E453C63AE651997696E87E
:1000E000E6C28426EB898C9B62ED407C6FFCEFBC02
:1000F0009C9F40F2BAA56FA5F490055A2AF75C932D
:100100006B6CF9676DC11BFCE0E40D47FEF520E662
:10011000B500D0ED902E0300943577050080841E45
:10012000080000204E0A000000C80C333333330FA0
:10013000986E12831141EF8D2114893BE65516CF3D
:10014000FEE6DB18D1844B381BF77C1D901DA4BB49
:10015000E424203284725E228100C9F124ECA1E5FE
:100160003D27000000000000000000005F000000CC
:100170000000000007000700000000147F147F1437
:10018000000000242A7F2A12000000231308646262
:100190000000003649552250000000000503000011
:1001A0000000001C2241000000000041221C000051
:1001B000000000082A1C2A0800000008083E080861
:1001C000000000A060000000000000080808080807
:1001D0000000006060000000000000201008040221
:1001E0000000003E5149453E00000000427F4000B3
:1001F0000000006251494946000000224149493649
:100200000000001814127F100000002745454539F2
:100210000000003C4A494930000000017109050313
:100220000000003649494936000000064949291EA8
:10023000000000003636000000000000AC6C00003A
:1002400000000008142241000000001414141414CB
:1002500000000041221408000000000201510906BC
:10026000000000324979413E0000007E0909097E04
:100270000000007F494949360000003E41414122CB
:100280000000007F4141221C0000007F4949494194
:100290000000007F090909010000003E4141517240
:1002A0000000007F0808087F000000417F41000037
:1002B0000000002040413F010000007F081422415F
:1002C0000000007F404040400000007F020C027FA1
:1002D0000000007F0408107F0000003E4141413EC5
:1002E0000000007F090909060000003E4151215E1F
:1002F0000000007F091929460000002649494932BB
:1003000000000001017F01010000003F4040403F2C
:100310000000001F2040201F0000003F4038403FE9
:100320000000006314081463000000030478040351
:1003300000000061514945430000007F4141000039
:10034000000000020408102000000041417F00006E
:100350000000000402010204000000808080808010
:1003600000000001020400000000002054545478F2
:100370000000007F4844443800000038444428000E
:10038000000000384444487F00000038545454189A
:10039000000000087E09020000000018A4A4A47C4C
:1003A0000000007F08040478000000007D000000C9
:1003B00000000080847D00000000007F10284400C1
:1003C000000000417F4000000000007C0418047819
:1003D0000000007C08047C00000000384444380021
:1003E000000000FC24241800000000182424FC0055
:1003F000000000007C080400000000485454240061
:10040000000000047F4400000000003C40407C00ED
:100410000000001C2040201C0000003C4030403CFC
:1004200000000044281028440000001CA0A07C000C
:100430000000004464544C440000000836410000B1
:10044000000000007F0000000000004136080000AE
:100450000000000201010201000000020505020087
:10046000000011241FBECFEFD8E0DEBFCDBF11E0EA
:10047000A0E0B1E0E2E2FEE002C005900D92A430FF
:10048000B107D9F721E0A4E0B1E001C01D92A53089
:10049000B207E1F70E9455030C940F070C9400007B
:1004A0001F920F920FB60F9211240F931F932F9349
:1004B0003F934F935F936F937F938F939F93AF93EC
:1004C000BF93EF93FF93CF93DF93CDB7DEB72A9718
:1004D000DEBFCDBF809178002091790030E0220FFF
:1004E000331F220F331F8295869586958370282BA4
:1004F00046E9429FC001439F900D112463E371E0E0
:100500000E94720480E090E00E9435048E010F5F2B
:100510001F4F21E044E00E9486040E9408030E94CD
:10052000E0030E94C30362E085E00E94AD03C801BE
:100530000E948B0381E091E00E948B03EAE7F0E0E8
:100540008081806480832A960FB6F894DEBF0FBE48
:10055000CDBFDF91CF91FF91EF91BF91AF919F916F
:100560008F917F916F915F914F913F912F911F914B
:100570000F910F900FBE0F901F901895EAE7F0E0D3
:10058000808180688083808187608083ACE7B0E071
:100590008C9180628C938C9180648C938081886034
:1005A000808380818064808308951F920F920FB6AC
:1005B0000F9211248F938091C6008093040180EFE5
:1005C0008AB980910401811104C08BB180618BB91B
:1005D00003C08BB180678BB98F910F900FBE0F90C6
:1005E0001F901895E2ECF0E020812F73208322E029
:1005F0002093C0009093C5008093C40086E0808360
:10060000E1ECF0E088E18083808180688083089558
:100610001092B90084E18093B80084E08093BC001C
:10062000089584E98093BC008FE99FE00197F1F77A
:1006300000C00000089594EA9093BC009091BC0023
:100640009923E4F79091B900987F983091F48093C2
:10065000BB0084E88093BC008091BC008823E4F751
:100660008091B900887F883131F0803231F482E0A6
:10067000089580E0089581E0089583E008958093CF
:10068000BB0084E88093BC008091BC008823E4F721
:100690008091B900887F883221F0803321F481E095
:1006A000089580E0089582E008950E9408030E9462
:1006B000E0030E94D9030E94BE028FEC90E00E94EA
:1006C000F2027894FFCFCF93C82F809100010E944F
:1006D0001B0380E00E943F038C2F0E943F030E9477
:1006E0001103CF9108958FEA0E94630308958EEA63
:1006F0000E9463030895CF93C82F809100010E9448
:100700001B0380E40E943F038C2F0E943F030E9442
:100710001103CF9108951F93CF93DF93EC0116C07F
:10072000E881F0E0B097EE0FFF1FEE0FFF1FEE0F16
:10073000FF1FEE59FE4FE10FF11D84910E947B03D4
:100740001F5F01C010E0183058F321968881811195
:10075000F9CFDF91CF911F910895CF93C62F805588
:100760000E9463038C2F880F880F880F88700E9467
:1007700063038C2F90E0969587958F70805F0E9421
:100780006303CF910895CF93DF93D0E00DC060E075
:100790008D2F0E94AD03C0E004C080E00E947B0367
:1007A000CF5FCC23D4F7DF5FD83088F3DF91CF91D0
:1007B00008950E9477030E94C3030E947303089563
:1007C00087B1806387B988B1806388B92FEF81EEE4
:1007D00094E0215080409040E1F700C000008EEA94
:1007E0000E94630385ED0E94630380E80E94630317
:1007F00088EA0E9463038FE30E94630383ED0E94F3
:10080000630380E00E94630380E40E9463038DE839
:100810000E94630384E10E94630381EA0E946303F0
:1008200088EC0E9463038AED0E94630382E10E94C8
:10083000630381E80E9463038FEC0E94630389EDE8
:100840000E94630381EF0E9463038BED0E946303A8
:1008500080E40E94630384EA0E94630386EA0E94A4
:1008600063038FEA0E9463030895E89409C097FB2D
:100870003EF490958095709561957F4F8F4F9F4F77
:100880009923A9F0F92F96E9BB279395F6958795BB
:1008900077956795B795F111F8CFFAF4BB0F11F47E
:1008A00060FF1BC06F5F7F4F8F4F9F4F16C0882325
:1008B00011F096E911C0772321F09EE8872F762F5B
:1008C00005C0662371F096E8862F70E060E02AF09C
:1008D0009A95660F771F881FDAF7880F9695879588
:1008E00097F90895AA1BBB1B51E107C0AA1FBB1FA4
:1008F000A617B70710F0A61BB70B881F991F5A95AC
:10090000A9F780959095BC01CD010895EF920F93C2
:100910001F93CF93DF93E80147FD02C034E001C08D
:1009200034E1042E000C550B57FF03C0519541953F
:100930005109E32E022F242FAE010E94A604CE01FE
:10094000DF91CF911F910F91EF900895A9E0B0E052
:10095000ECEAF4E00C94DE066A01122FB02E2BE3D1
:10096000201720F0FF24F394F00E02C02CE3F22EA7
:100970000F2D27E0AE014F5F5F4F0E940006BC01C4
:100980004981842F8970813031F0E1FC06C0E0FE9E
:1009900006C090E205C09DE203C09BE201C090E06A
:1009A0005E2D507143FF3CC0911102C083E001C035
:1009B00084E0811718F4212F281B01C020E0511179
:1009C0000BC0F601822F30E2882319F03193815059
:1009D000FBCFC20ED11C20E0992329F0D6019C93B5
:1009E000F60131966F01C6010396E2FE0AC03EE4AD
:1009F000D6013C9341E411964C93119712963C9387
:100A000006C03EE6F601308341E641833283FC01B5
:100A1000322F40E2332309F442C041933150FACFE0
:100A200042FF44C0911102C083E001C084E08117FD
:100A300018F4212F281B01C020E051110BC0F60132
:100A4000822F30E2882319F031938150FBCFC20E00
:100A5000D11C20E0992329F0D6019C93F601319610
:100A60006F01C6010396E2FE0BC039E4D6013C9348
:100A70003EE411963C93119736E412963C9307C0DE
:100A800039E6F60130833EE6318336E63283FC01F7
:100A9000322F40E2332319F041933150FBCFFC0158
:100AA000E20FF11D10828EEF9FEFA6C021E030E033
:100AB000911102C020E030E0161617061CF4FB016D
:100AC000319602C0E1E0F0E02E0F3F1FBB2021F085
:100AD000EB2DF0E0319602C0E0E0F0E02E0F3F1F7A
:100AE000E12FF0E02E173F071CF4121B212F01C04D
:100AF00020E08E2D887159F4F601822F30E2882390
:100B000019F031938150FBCFC20ED11C20E0992304
:100B100029F0D6019C93F60131966F0151110BC05B
:100B2000F601822F90E3882319F091938150FBCF37
:100B3000C20ED11C20E00F2D060F9A81342F307188
:100B400044FF03C0913309F40150101624F4093016
:100B500018F008E001C001E0AB0177FF02C040E0FF
:100B600050E0FB01E41BF50BA1E0B0E0AC0FBD1FB2
:100B7000EA0FFB1F8EE2A82E4B01801A91080B2D65
:100B800010E01195019511094F3FBFEF5B0721F46C
:100B9000D601AC9211966D01641775072CF084167E
:100BA000950614F4818101C080E3415051093196CA
:100BB000D60111967D014017510724F0D6018C9380
:100BC0006701E2CF6417750739F4963320F4953343
:100BD00019F4311101C081E3F6018083F701822FFE
:100BE00090E2882319F091938150FBCFF701E20F37
:100BF000F11D108280E090E02996ECE00C94FA065A
:100C0000283008F027E03327DA01990F311D87FDDE
:100C1000916000966105710539F432602E5F3D9355
:100C200030E32A95E1F708959F3F30F08038710551
:100C3000610509F03C5F3C5F3D93913008F08068AE
:100C4000911DDF93CF931F930F93FF92EF92192F74
:100C5000987F9695E92F96959695E90FFF27EE5385
:100C6000FF4F99273327EE24FF24A701E7010590C2
:100C70000894079428F4360FE71EF81E491F511DEB
:100C8000660F771F881F991F0694A1F70590079498
:100C900028F4E70EF81E491F561FC11D770F881F45
:100CA000991F661F0694A1F70590079428F4F80E83
:100CB000491F561FC71FD11D880F991F661F771F19
:100CC0000694A1F70590079420F4490F561FC71FFB
:100CD000D81F990F661F771F881F0694A9F7849164
:100CE0001095177041F0D695C79557954795F7948D
:100CF000E7941A95C1F7E8E6F0E06894159015912D
:100D000035916591959105907FE27395E118F10A0F
:100D1000430B560BC90BD009C0F7E10CF11E431F62
:100D2000561FC91FD01D7EF4703311F48A95E6CF8B
:100D3000E894015030F0080F0AF40027021708F475
:100D4000202F2395022F7A3328F079E37D932A957B
:100D5000E9F710C07D932A9589F6069497956795D3
:100D6000379517951794E118F10A430B560BC90BE9
:100D7000D00998F023957E9173957A3308F070E34B
:100D80007C932013B8F77E9170617D9330F083954A
:100D900071E37D9370E32A95E1F71124EF90FF90C2
:100DA0000F911F91CF91DF91992787FD909508951D
:100DB0002F923F924F925F926F927F928F929F926B
:100DC000AF92BF92CF92DF92EF92FF920F931F9359
:100DD000CF93DF93CDB7DEB7CA1BDB0B0FB6F8940A
:100DE000DEBF0FBECDBF09942A88398848885F844A
:100DF0006E847D848C849B84AA84B984C884DF80BB
:100E0000EE80FD800C811B81AA81B981CE0FD11D9E
:100E10000FB6F894DEBF0FBECDBFED010895F89474
:020E2000FFCF02
:040E220078204300F1
:00000001FF
